:100000001AEF14F00000000000EF00F00000000004
:0A0010000000000000000000F3D71C
:10001C000B820BAE18EF00F00368026801680068F1
:08002C000A360232FF0E120039
:080034000AAE029E000E12004C
:0E003C00026A016A006A086A036A000E120076
:0E004A00030E0D6E0D2EFED7000000001200FA
:10005800560E0C6EB50E0D6E0D2EFED70C2EFCD75F
:0600680000000000120080
:0E006E00C70E0D6E0D2EFED700000000120012
:10007C000B840BAE49EF00F0010E036E026A016AAD
:0A008C00006A0A360232FF0E12006D
:1000960003013BBF02D0839E01D0838E3BBD02D0BD
:1000A600839C01D0838C3BBB02D0839A01D0838A88
:1000B6003BB902D0839801D0838802018CB102D06B
:1000C600838401D083948386BDDF839603013BB787
:1000D60002D0839E01D0838E3BB502D0839C01D093
:1000E600838C3BB302D0839A01D0838A3BB102D082
:1000F600839801D0838802018CB102D0838401D019
:10010600839483869FDF83968CA102D0A2DF01D0E1
:04011600ABDF120049
:10011A000CB0CFEF00F00CA275EF01F00E6A000EE2
:10012A000264E6EF00F0F00E0214D8A4B1EF00F07A
:10013A00023A01380F0B02260138F00B016E003823
:10014A000F0B01260038F00B006E08380F0B002643
:10015A000838F00B086E0E84D89002BECAEF00F081
:10016A0008360036013602360E2A02BECAEF00F001
:10017A0008360036013602360E2A02BECAEF00F0F1
:10018A0008360036013602360E2A0E5003646BEF2B
:10019A0001F0035E0BBC08AE70EF01F0D880800E50
:1001AA0008640030000E002201220222D8A070EF5B
:1001BA0001F0023201320032034A75EF01F070EFAA
:1001CA0001F001C002F000C001F008C000F0086AA6
:1001DA00000E0E8602641DEF01F0F00E0214D8A480
:1001EA0005EF01F0023A01380F0B02260138F00B35
:1001FA00016E00380F0B01260038F00B006E0E84DA
:10020A00D89002BECAEF00F00036013602360E2A36
:10021A0002BECAEF00F00036013602360E2A02BECE
:10022A00CAEF00F00036013602360E2ACAEF00F095
:10023A0001C002F000C001F0006A000E0E960E889E
:10024A0002644AEF01F0F00E0214D8A435EF01F06F
:10025A00023A01380F0B02260138F00B016E0E84A8
:10026A00D89002BECAEF00F0013602360E2A02BE4C
:10027A00CAEF00F0013602360E2A02BECAEF00F0BB
:10028A00013602360E2ACAEF00F001C002F0016AF6
:10029A00000E0E8602647AEF01F0F00E0214D8A462
:1002AA0059EF01F0023A0E84D89002BECAEF00F06C
:1002BA0002360E2A02BECAEF00F002360E2A02BE2B
:1002CA00CAEF00F002360E2ACAEF00F0010E0C6ED9
:1002DA00D0DE7DEF01F0020E0C6EA7DE7DEF01F09D
:1002EA00040E0C6E96DE7DEF01F0080E0C6EA1DE98
:0202FA001200F0
:0E02FC0002018C9137C33BF3C8DE8C811200E7
:10030A000B800BAE91EF01F0026A0AAEFF0E026E8D
:0C031A00016E006E0A360232FF0E120067
:100326000B6A0A6A096A00500402F4CF09F0F3CF97
:1003360008F001500502F4CF0BF0F3CF0AF000509D
:100346000502F3500926F4500A22E86A0B220150EE
:100356000402F3500926F4500A22E86A0B2208C068
:1003660000F009C001F00AC002F00BC003F0120051
:10037600025006180E6E086A096A0B6A0350076473
:10038600AEEF02F006500A6E068E028E03500B6E1A
:100396000750036E000E0B64FEEF01F00B50075E74
:1003A600D8B49FEF02F0070E07646DEF02F0075E08
:1003B60000C008F001C000F002C001F0026A074E5A
:1003C6009FEF02F0076442EF02F0075E00C008F0FC
:1003D60001C000F0016A074E9FEF02F0076420EFAC
:1003E60002F0075E00C008F0006A074E9FEF02F0B9
:1003F600076407EF02F00AC002F005C001F004C06E
:1004060000F0086AC8EF03F0030E076412EF02F06B
:10041600075E08380F0B086E074E9FEF02F0D89064
:100426000832074E9FEF02F0D8900832074E9FEF32
:1004360002F0D89008329FEF02F0030E076431EF06
:1004460002F0075E08380F0B086E0038F00B08261E
:1004560000380F0B006E074E9FEF02F0D890003267
:100466000832074E9FEF02F0D89000320832074E4E
:100476009FEF02F0D890003208329FEF02F0030E91
:10048600076459EF02F0075E08380F0B086E003854
:10049600F00B082600380F0B006E0138F00B002613
:1004A60001380F0B016E074E9FEF02F0D890013214
:1004B60000320832074E9FEF02F0D8900132003228
:1004C6000832074E9FEF02F0D89001320032083210
:1004D6009FEF02F0030E07648AEF02F0075E08380A
:1004E6000F0B086E0038F00B082600380F0B006E55
:1004F6000138F00B002601380F0B016E0238F00BA5
:10050600012602380F0B026E074E9FEF02F0D890BD
:100516000232013200320832074E9FEF02F0D890C5
:100526000232013200320832074E9FEF02F0D890B5
:100536000232013200320832096A000E0EAE93EF23
:1005460003F0081E001E011E021E082A00220122B8
:10055600022293EF03F00750D8A4B4EF02F0C8EFDD
:1005660003F0096A02C00AF0028E068E0750035C89
:10057600076ED8B486EF03F0070E076454EF03F056
:10058600075E0450096E0550046E0650056E066A35
:10059600074E86EF03F0070E076429EF03F0075EA8
:1005A6000450096E0550046E056A074E86EF03F087
:1005B600070E076407EF03F0075E0450096E046A2E
:1005C600074E86EF03F0070E0764EEEF02F00AC04F
:1005D60002F0C8EF03F0030E0764F9EF02F0075EBE
:1005E60009380F0B096E074E86EF03F0D8900932D3
:1005F600074E86EF03F0D8900932074E86EF03F0D8
:10060600D890093286EF03F0030E076418EF03F063
:10061600075E09380F0B096E0438F00B09260438FB
:100626000F0B046E074E86EF03F0D89004320932A2
:10063600074E86EF03F0D89004320932074E86EF54
:1006460003F0D8900432093286EF03F0030E0764F4
:1006560040EF03F0075E09380F0B096E0438F00B04
:10066600092604380F0B046E0538F00B04260538EE
:100676000F0B056E074E86EF03F0D8900532043255
:100686000932074E86EF03F0D8900532043209325C
:10069600074E86EF03F0D89005320432093286EF12
:1006A60003F0030E076471EF03F0075E09380F0BC2
:1006B600096E0438F00B092604380F0B046E053852
:1006C600F00B042605380F0B056E0638F00B0526D1
:1006D60006380F0B066E074E86EF03F0D8900632EB
:1006E600053204320932074E86EF03F0D8900632FF
:1006F600053204320932074E86EF03F0D8900632EF
:10070600053204320932086A000E0EAE93EF03F08A
:10071600091E041E051E061E092A0422052206229B
:1007260009500826045000220550012206500222D4
:100736000EBEAAEF03F0D8A0B9EF03F002320132E1
:1007460000320832033EB9EF03F0C3EF03F0D8B02E
:10075600BEEF03F0000E081E001E011E021E082A30
:100766000022012202220A7EBEEF03F0010E0C6E69
:10077600D1DCCAEF03F0020E0C6ECCDCCAEF03F03C
:10078600040E0C6E48DCCAEF03F0000E0C6E12006D
:080796000B6A0B86FF0E120036
:10079E000C6A0E6A0250D8A4E8EF03F001C002F012
:1007AE0000C001F0006A0E860250D8A4E8EF03F0F4
:1007BE0001C002F0016A0E960E880250D8B4FAEF0C
:1007CE0003F00E50035ED8A4D8A0FFEF03F0D8902C
:1007DE0002BE04EF04F0003601360236032EEFEFB0
:1007EE0003F0FFEF03F0010E0C6E21DC07EF04F0B7
:1007FE00020E0C6E3CDC07EF04F0040E0C6E13DCE4
:02080E001200D6
:1008100037C304F038C305F004C002F005C003F08C
:10082000044A052A39C300F03AC301F00301394BE9
:100830003A2B00C0E9FF01C0EAFF02C0E1FF03C09C
:10084000E2FFEECFE6FF02C0E9FF03C0EAFFEE528F
:0E08500001E0E2D737C300F038C301F0120018
:10085E000D6A086A0050D8B4000C04180A6E0ABE5D
:10086E000D1E0B6A04AE02D0041E042A00AE02D086
:10087E00001E002A005004100A6E0ABE1FD004503B
:10088E00085E003600340836045008260036060E80
:10089E000C6E00340836045000B0085E00A0082626
:1008AE0000360C2EF6D700A008260BB015D00DAED4
:1008BE00000C001E002A081E082A000C04AE09D0E7
:1008CE0000BE04D00050086E006AF1D7006A002AFC
:1008DE00000C001E0B2AD3D7082A0450085CD8A49B
:0E08EE00E6D7086A002A00AEE2D7FF0C12001F
:1008FC00086A096A000E0762036403EF05F00250F0
:10090C0006180A6E075003267E0ED8A094EF04F04A
:10091C00035ED8B008EF05F098EF04F0035ED8A0A2
:10092C000DEF05F0028E068E02C00EF001C00BF02A
:10093C0000C00DF000500402F4CF0CF00150050281
:10094C00F4CF00F0F3CF08F00402F3500C26F4506F
:10095C000822000E00220D500502F3500C26F45014
:10096C000822000E002202500402F3500826F45014
:10097C00002202500502016A000E0122F3500026EB
:10098C00F45001220D500602F3500826F4500022B8
:10099C00026A000E012202220B500602F3500026BE
:1009AC00F4500122000E02220E500602F3500126D2
:1009BC00F450022202BEEBEF04F00836003601368A
:1009CC0002360306D8B40DEF05F0FEEF04F0D88024
:1009DC00800E08640030000E002201220222D8A0F2
:1009EC00FEEF04F0023201320032034A08EF05F048
:1009FC000AAE029E000E10EF05F0010E1EEC00F088
:100A0C0010EF05F0020E0EEC00F010EF05F0040EE6
:060A1C003EEC00F01200A8
:100A22000A6A0350D8A40A800750D8A40A820A503E
:100A3200D8B474EF05F0030AD8B42DEF05F00AB06C
:100A420028EF05F006AE72EF05F070EF05F002AE8A
:100A520070EF05F072EF05F00250800B0A6E029EF5
:100A62000650800B069E0A18D8B43EEF05F00A50D5
:100A7200D8B470EF05F072EF05F00750035CD8B4FC
:100A820048EF05F0D8A064EF05F06AEF05F00650D4
:100A9200025CD8B452EF05F0D8A064EF05F06AEF1B
:100AA20005F00550015CD8B45CEF05F0D8A064EF06
:100AB20005F06AEF05F00450005CD8B474EF05F05D
:100AC200D8B06AEF05F00A52D8B472EF05F070EFB1
:100AD20005F00A52D8B470EF05F072EF05F0D88035
:0E0AE2001200D8901200D880D88412001200A2
:0E0AF000ACB202D00000FCD737C3ADFF12003D
:100AFE0037C3E9FF38C3EAFFEE500301391905E1A8
:100B0E0037C300F038C301F010D037C300F038C33C
:100B1E0001F0374B382B00C0E9FF01C0EAFFEECFE2
:0C0B2E0000F00052E5E1006A016A1200CC
:100B3A0010D0800E0301256F1AD0C00E256F17D072
:100B4A00940E256F14D0D40E256F11D0800E256F08
:100B5A000ED003012551010AECE02551020AEDE00D
:100B6A002551030AEDE02551040AEDE0EFD72605E9
:100B7A00006E2551002600C025F300C03BF34BEC64
:100B8A0000F08C910301296B29512725E96E000E8B
:100B9A002821EA6EEE520DE029512725E96E000E52
:100BAA002821EA6EEECF37F37EEC01F00301292B00
:080BBA00EBD702018C8112004F
:100BC200AECF01F0ABA202D0AB98AB8801C000F06F
:020BD20012000F
:100BD4000C0E0301276F000E286F25C300F026C3F7
:100BE40001F001320032019E01320032019E0132D5
:100BF4000032019E01320032019E0C0E046E000E82
:100C0400056E93EC01F000C027F301C028F327C35D
:100C140000F028C301F0010E275F000E285B00508E
:0E0C2400011004E0000000000000F1D71200F3
:100C32000301286B25C3E9FF26C3EAFFEECF27F3A2
:100C42002751000A0EE027C337F351DF0301282B97
:100C520028512525E96E000E2621EA6EEECF27F3F4
:040C6200EFD71200B6
:0A0C6600000E9EBA010E006E12008F
:100C70000B6A0C6A0A6A0350D8B482EF06F0028E3F
:100C80008E0E035E03BE4AEF06F0D8B44AEF06F0BC
:100C900086EF06F0036C080E035CD8A061EF06F047
:100CA000036E013602C001F0026A080E035CD8A090
:100CB00061EF06F00136016A0350D8A4D8906BEFBB
:100CC00006F00350D8B46BEF06F0D8900232013230
:100CD000032E65EF06F00BBC01A078EF06F0D8A05C
:100CE00078EF06F0012AD8B4022A02BE95EF06F08A
:100CF0000AAE9BEF06F0021E011E012AD8B4022A9A
:100D00009BEF06F0026A016A9BEF06F00B800BAEC8
:100D10009FEF06F0026A0AAE9FEF06F0FF0E026E2A
:100D2000016E0A3602329FEF06F0010E0C6E85EC62
:100D300001F0A1EF06F0000E0C6EA1EF06F0FF0E21
:0C0D40000C6E0150006E0250016E12009B
:080D4C00067EBBEC01F0120071
:100D5400220E0C6E086A096A0A6A0B6A0C06D8B479
:100D64001FD0D8900B320A320932083203320232D1
:100D740001320032D8A0F2D70C06D8B409D00450FE
:100D840008260550092206500A2207500B22EAD7EA
:100D9400045008260550092206500A2207500B2247
:020DA40012003B
:100DA60003012551390806E3300E255D03E3010EE4
:080DB600006E01D0006A12007A
:100DBE00086A096A100E0C6E0134083609360450A2
:100DCE00085E0550D8A0053C095ED8B007D0045087
:100DDE0008260550D8B0053C0926D89000360136B5
:060DEE000C2EEAD71200F2
:100DF40000C008F00150006E016A026A036A0B6ABF
:100E04000C6A016A026A036A960E036E0A6A00AEED
:100E140012EF07F0081E001E082AD8B4002A0A8E12
:100E240000C001F008C000F0086A026AB6DC1200D3
:100E34000450000A12E10550000A0FE10650000AAE
:100E44000CE10750000A09E1FF0E006EFF0E016E6F
:100E54007F0E026EFF0E036EA7D0086A096A075060
:100E6400D8B4C5EF07F00350D8B4C9EF07F0025067
:100E740006180A6E028E068E0E6A02C008F001C0C1
:100E84000CF000C00DF004500D5E0550D8A0053CD8
:100E94000C5E0650D8A0063C085E086A0C6A0D6A0F
:100EA400D8A05CEF07F0D890023201320032083249
:100EB400010E0E6E0750035ED8A069EF07F07E0E98
:100EC4000E240326D8B0CEEF07F06FEF07F07E0EA6
:100ED4000E240326D8A0D3EF07F0180E0B6E0D36A0
:100EE4000C3608360036013602360E360450005EE3
:100EF4000550D8A0053C015E0650D8A0063C025E11
:100F040006340E120EA08AEF07F00D8095EF07F05D
:100F1400045000260550D8B0053C01260650D8B030
:100F2400062802260D900B2E71EF07F0BBEF07F099
:100F3400D8900036013602360E360450005E055055
:100F4400D8A0053C015E0650D8A0063C025E0634DB
:100F54000E10010B0D26D8B00C2AD8B4082AD8A438
:100F6400BBEF07F008320C320D32032AD8B4CEEFAF
:100F740007F00AAE089E0850026E0C50016E0D5028
:100F8400006ED6EF07F0010E04DCD6EF07F0020E78
:100F94001EEC00F0D6EF07F0040E0EEC00F0D6EFD6
:0A0FA40007F0080E3EEC00F012000A
:100FAE000301326B336B346B356B366B25C32EF30B
:100FBE0026C32FF327C330F328C331F33151FF0A71
:100FCE0008E13051FF0A05E12F51FF0A02E12E51CF
:100FDE00FF0A0CE129C337F32AC338F3810E396FA8
:100FEE00010E3A6F0EDC030E006E5BD2010E2C6FFB
:100FFE0030AF0FD0800E3019006E00C030F32C2BA6
:10100E00332B29C3E1FF2AC3E2FF2D0EE66E294BD7
:10101E002A2B000E006E311908E10050301905E13F
:10102E0000502F1902E12E51000A0CE129C337F3AB
:10103E002AC338F3850E396F010E3A6F08EC04F0AF
:10104E00006A2FD23151FF0A08E13051000A05E142
:10105E002F51000A02E12E51000A0DE129C337F388
:10106E002AC338F3A60E396F010E3A6F08EC04F05E
:10107E002CC300F016D2000E046E000E056E000E8C
:10108E00066E7F0E076E2EC300F02FC301F030C325
:10109E0002F031C303F0BEDC010ED8B0000E006EBC
:1010AE0000521BE02EC300F02FC301F030C302F03C
:1010BE0031C303F0000E046E000E056E200E066E98
:1010CE00820E076E14DC00C02EF301C02FF302C097
:1010DE0030F303C031F33607CED7000E046E000E88
:1010EE00056E200E066E820E076E2EC300F02FC305
:1010FE0001F030C302F031C303F08CDC000ED8B027
:10110E00010E006E00521CE02EC300F02FC301F042
:10111E0030C302F031C303F0CD0E046ECC0E056E5B
:10112E004C0E066E7B0E076E7EEC04F000C02EF3A6
:10113E0001C02FF302C030F303C031F3362BCDD7ED
:10114E00FF0E2E15086EFF0E2F15096E7F0E301531
:10115E000A6E000E31150B6E08C004F009C005F0C2
:10116E000AC006F00BC007F00436049005360636AA
:10117E000736000E2E15006E000E2F15016E000E96
:10118E003015026EFF0E3115036E00C02EF301C036
:10119E002FF302C030F303C031F304502E11006E52
:1011AE0005502F11016E06503011026E075031118D
:1011BE00036E00C02EF301C02FF302C030F303C044
:1011CE0031F37F0E315D006E00C02DF3010E316FD5
:1011DE0000C004F02EC300F02FC301F030C302F0A4
:1011EE0031C303F0045007E000360090013602369A
:1011FE000336FF0FF8D700C02EF301C02FF302C045
:10120E0030F303C031F329C3E1FF2AC3E2FF3151AA
:10121E00300FE66E294B2A2B332B800E3619006EBB
:10122E00800E010A005C08E3800E060A006E800E36
:10123E003619005C01E30BD029C3E1FF2AC3E2FF9C
:10124E002E0EE66E294B2A2B010E326F332B060E15
:10125E002D6F2D51000A58E0316B2EC300F02FC3B5
:10126E0001F030C302F031C303F0003600900136B6
:10127E0002360336003600900136023603362E5102
:10128E0000262F510122305102223151032200C07B
:10129E002EF301C02FF302C030F303C031F32EC37F
:1012AE0000F02FC301F030C302F031C303F000365B
:1012BE00009001360236033600C02EF301C02FF324
:1012CE0002C030F303C031F329C3E1FF2AC3E2FFAA
:1012DE003151300FE66E294B2A2B332B3251000A37
:1012EE0011E136073651000A0DE1010E356F29C3A3
:1012FE00E1FF2AC3E2FF2E0EE66E294B2A2B010ECA
:10130E00326F332B2D07A5D73551010AD8B43307C9
:10131E00FF0E2925E96EFF0E2A21EA6EEE502E0AE7
:10132E0005E1010E295F000E2A5B3307800E000ACD
:10133E00006E800E3619005C02E2010E346F800ED4
:10134E003619006E800E000A005C02E2020E346F47
:10135E0036C32DF3800E090A006E800E3619005C1E
:10136E0002E3342B02D0020E342734513325016EA2
:10137E00026A000E0222800E0218006E800E005CC1
:10138E0002E12B51015C0AE229C3E1FF2AC3E2FF0D
:10139E00300EE66E294B2A2B332BE7D73651000A37
:1013AE0043E029C3E1FF2AC3E2FF650EE66E294B37
:1013BE002A2B800E3619006E800E000A005C0BE29E
:1013CE0029C3E1FF2AC3E2FF2D0EE66E294B2A2B1D
:1013DE0036510008366F36C32DF3800E090A006EA3
:1013EE00800E3619005C0FE20A0E046E2DC300F05B
:1013FE002FEC04F029C3E1FF2AC3E2FF0050300FA7
:10140E00E66E294B2A2B0A0E046E2DC300F02FEC2C
:10141E0004F008C000F029C3E1FF2AC3E2FF005028
:10142E00300FE66E294B2A2B34513325006E00C047
:10143E0033F32B51005C016E01C02DF3800E000AB8
:10144E00006E800E0118005C0EE2800E000A006E27
:10145E00800E2D19005C06E22D07010E295F000E8D
:10146E002A5BF3D718D0800E2D19006E800E000A5D
:10147E00005C11E2800E2D19006E800E000A005CD9
:10148E000AE22D2B29C3E1FF2AC3E2FF300EE66EDE
:10149E00294B2A2BEFD729C3E1FF2AC3E2FFE66AC5
:0414AE00006A1200BE
:1014B20029C300F003012907005228E025C3E9FFF0
:1014C20026C3EAFFEE50000A0CE025C3E9FF26C35B
:1014D200EAFF27C3D9FF28C3DAFFEE50DE1801E185
:1014E2000FD025C3E9FF26C3EAFF27C3D9FF28C3CC
:1014F200DAFFDE50EE5C006E016A000E015A08D07F
:101502000301254B262B274B282BD2D7006A016AD1
:021512001200C5
:1015140025C302F026C303F002C000F003C001F0AB
:10152400024A032A00C0E9FF01C0EAFFEE5201E0CB
:10153400F3D703012551025C006E26510358016E56
:0A154400010E005E000E015A1200B5
:10154E000301296B25C3E9FF26C3EAFFEE5216E01D
:10155E0027C337F328C338F325C3E9FF26C3EAFFB1
:10156E00EECF39F37FEC05F0000E011802E1000E0C
:10157E00001804E1254B262B292BE4D729C300F0B4
:02158E00120049
:101590000301296B2A6B25C3E9FF26C3EAFFEE523C
:1015A00017E027C337F328C338F325C3E9FF26C361
:1015B000EAFFEECF39F37FEC05F0000E011802E1EF
:1015C000000E001805E0254B262B294B2A2BE3D7CC
:0A15D00029C300F02AC301F0120045
:1015DA00010E03013B6F4BEC00F0000E046E000E8F
:1015EA00056E7A0E066E880E076EF5C200F0F6C218
:1015FA0001F0F7C202F0F8C203F017DC00C025F3CD
:10160A0001C026F302C027F303C028F3FD0E03012D
:10161A00296F020E2A6F050E2B6FC4DC000E046EB2
:10162A00000E056E7A0E066E880E076EF9C200F07D
:10163A00FAC201F0FBC202F0FCC203F01AEC07F096
:10164A0000C025F301C026F302C027F303C028F324
:10165A00910E0301296F020E2A6F050E2B6FA2DC71
:10166A00010E256F010E266FF70E276F000E286FE9
:10167A009DEC05F0010E0301256F0B0E266FB90EC6
:10168A00276F020E286F9DEC05F0010E0301256FEE
:10169A00120E266F040E276F010E286F9DEC05F0BF
:1016AA00020E0301256F010E266F070E276F010E2A
:1016BA00286F9DEC05F0020E0301256F0B0E266FB5
:1016CA00CD0E276F020E286F9DEC05F0020E030166
:1016DA00256F120E266FF40E276F000E286F9DECF1
:1016EA0005F0030E0301256F010E266FE10E276F29
:1016FA00000E286F9DEC05F0030E0301256F0D0EF9
:10170A00266FFD0E276F020E286F9DEC05F0030E63
:10171A000301256F120E266FEB0E276F000E286F3E
:10172A009DEC05F0040E0301256F010E266FEE0EE7
:10173A00276F000E286F9DEC05F0040E0301256F3C
:10174A000D0E266F910E276F020E286F9DEC05F085
:10175A00040E0301256F120E266F4F0E276F010E1E
:08176A00286F9DEC05F0120050
:10177200000E03011C1902E1000E1B1904E186C2CE
:101782001BF387C21CF31B511C1103E1006A016A9F
:1017920055D01BC3E9FF1CC3EAFFEECF00F0005295
:1017A20003E1006A016A4AD01BC325F31CC326F376
:1017B2001DC327F31EC328F3EADE1B5100261C516A
:1017C200012200C01BF301C01CF300C0E9FF01C0ED
:1017D200EAFFEECF00F0005208E10201866B876B50
:1017E200000E006E000E016E29D01BC325F31CC330
:1017F20026F31DC327F31EC328F3A8DE000E016ED5
:101802001B5100261C51012200C086F201C087F242
:1018120000C0E9FF01C0EAFFEE5209E086C2E1FF23
:1018220087C2E2FFE66A0201864B872B03D00201E0
:0E183200866B876B1BC300F01CC301F0120015
:1018400052C200F053C201F0FAEC06F000C004F0FE
:1018500001C005F002C006F003C007F0000E006EE4
:10186000000E016E000E026E7F0E036E1AEC07F082
:1018700000C0F5F201C0F6F202C0F7F203C0F8F2C0
:10188000000E046E240E056E740E066E920E076E28
:101890007EEC04F000C01BF301C01CF302C01DF37A
:1018A00003C01EF31BC3F5F21CC3F6F21DC3F7F20F
:1018B0001EC3F8F2350E02017A5D006E000E7B59F0
:1018C000016EFAEC06F000C049F201C04AF202C013
:1018D0004BF203C04CF27AC200F07BC201F000363A
:1018E00000900136FAEC06F000C004F001C005F0EB
:1018F00002C006F003C007F01BC300F01CC301F0D8
:101900001DC302F01EC303F0A6EC06F000C0F9F2FE
:0E19100001C0FAF202C0FBF203C0FCF21200AA
:10191E0003011F6B050E1F5D0AE21F511D25E16EAF
:10192E00000E1E21E26E200EE66E1F2BF3D71F5106
:10193E001D25E16E000E1E21E26EE66A1F071F5185
:10194E001D25206F000E1E21216F0A0E046E000E43
:10195E00056E1BC300F01CC301F0DFEC06F008C0DF
:10196E0000F009C001F0300E002620C3E1FF21C3B4
:10197E00E2FF00C0E6FF0A0E046E000E056E1BC3EA
:10198E0000F01CC301F0DFEC06F000C01BF301C039
:10199E001CF3000E011802E1000E001801E102D046
:0619AE001F07CDD7120057
:1019B400000E03011C1902E1000E1B1935E01BC3C4
:1019C400E9FF1CC3EAFFEE522FE01DC325F31EC33B
:1019D40026F39EDD00C029F31BC325F31CC326F3A5
:1019E4001DC327F31EC328F362DD000E011802E1B4
:1019F400000E001805E11BC300F01CC301F016D053
:101A0400010E03011B25376F000E1C21386F1DC307
:101A1400E9FF1EC3EAFFEECF39F37FEC05F000C007
:0E1A24001BF301C01CF3C4D7006A016A120054
:101A32000301216B226B1F5344E01F51FF0AD8A4FC
:101A42001F0733EC06F00050000A01E1FAD7E1EC7F
:101A520005F000C020F3030121511B25E16E000EA9
:101A62001C21E26E00C0E6FF212B22511D25E96EEA
:101A7200000E1E21EA6EEE50201902E1222B09D03F
:101A8200226B1DC3E9FF1EC3EAFFEE502019D8B432
:101A9200222B22511D25E96E000E1E21EA6EEE5008
:101AA200000A0EE12251215D006E016A000E015A08
:101AB20000501B25E16E01501C21E26EE66A06D041
:0E1AC200BAD71BC3E1FF1CC3E2FFE66A1200A5
:0C1AD000010E03013B6F4BEC00F0120014
:101ADC001BC3E9FF1CC3EAFFEECF1DF3000E03018D
:101AEC001E6F000E1E6F000E1E1902E1200E1D1936
:101AFC0007E0000E1E1902E1090E1D1901E003D0CA
:101B0C001B4B1C2BE5D71F6B206B216B226B236BA4
:101B1C00246B1BC3E9FF1CC3EAFFEE502D0A05E141
:101B2C00234B242B1B4B1C2B09D01BC3E9FF1CC3C1
:101B3C00EAFFEE502B0A02E11B4B1C2B1BC3E9FFE7
:101B4C001CC3EAFFEECF1DF3000E1E6F000E1E6FBE
:101B5C001DC325F3D3EC06F000522BE01FC300F09D
:101B6C0020C301F021C302F022C303F00A0E046E5D
:101B7C00000E056E000E066E000E076EAAEC06F047
:101B8C00300E1D5D046E000E1E59056E04500024AF
:101B9C001F6F05500120206F000E05BEFF0E0220A6
:101BAC00216F000E05BEFF0E0320226F1B4B1C2B5A
:101BBC00C5D7235124110DE0006A016A026A036A39
:101BCC001F51005E2051015A2151025A2251035AD1
:101BDC0008D01FC300F020C301F021C302F022C3C0
:041BEC0003F01200F0
:101BF00033EC06F00050000AD8A4AAD081AEA8D0D9
:101C0000EE0EB56E49C200F04AC201F04BC202F0BE
:101C10004CC203F038EC06F000C025F301C026F3F7
:101C2000EAEC05F0E00EB56E49C200F04AC201F0E0
:101C30004BC202F04CC203F038EC06F000C025F3B2
:101C400001C026F3EAEC05F0E70EB56EF9C200F02C
:101C5000FAC201F0FBC202F0FCC203F038EC06F05D
:101C600000C025F301C026F3EAEC05F033EC06F0E2
:101C70000050010A14E1010E0101C26F010E676FED
:101C80000D0E0B6E2D0E0C6ED70E0D6E0D2EFED79B
:101C90000C2EFCD70B2EFAD70000000059D081BEC5
:101CA0002AD001013951010A26E1010EC26F010E4D
:101CB000676F020E0B6ED40E0C6E850E0D6E0D2E20
:101CC000FED70C2EFCD70B2EFAD7870E0301256FFB
:101CD000010E266F19EC06F00D0E0B6E2D0E0C6E1C
:101CE000D70E0D6E0D2EFED70C2EFCD70B2EFAD76D
:101CF000000000002DD081BE2AD001013951000A18
:101D000026E1C26B010E0201336F020E0B6ED40E80
:101D10000C6E850E0D6E0D2EFED70C2EFCD70B2EE5
:101D2000FAD77D0E0301256F010E266F19EC06F020
:101D30000D0E0B6E2D0E0C6ED70E0D6E0D2EFED7EA
:101D40000C2EFCD70B2EFAD70000000001D050D784
:021D500012007F
:101D5200A50E03011B6F020E1C6F4D0E1D6F020EAE
:101D62001E6F140E1F6F64DE9C0E0C6ED70E0D6E6E
:101D72000D2EFED70C2EFCD7A50E1B6F020E1C6F6C
:101D82004F0E1D6F020E1E6F14DE00C0B7F201C0AF
:101D9200B8F2000E011802E1000E001850E0A50E84
:101DA20003011B6F020E1C6F780E1D6F020E1E6F59
:101DB200DFDC00C039F301C03AF3E10E0301376FF3
:101DC200020E386F08EC04F01B6B1C6B760E1D6F55
:101DD200020E1E6FCDDC00C039F301C03AF3B90E1A
:101DE2000301376F020E386F08EC04F01B6B1C6B9B
:101DF2007C0E1D6F020E1E6FBBDC00C039F301C0EA
:101E02003AF3CD0E0301376F020E386F08EC04F07F
:101E1200B90E1B6F020E1C6F60DE00C052F201C0D1
:101E220053F2CD0E1B6F020E1C6F57DE00C07AF20A
:101E320001C07BF204DDEDEC0AF0D9DE24D0A50E60
:101E420003011B6F020E1C6F720E1D6F020E1E6FBE
:101E5200B0DD00C0B7F201C0B8F2000E011802E115
:101E6200000E001810E0010E03013B6F4BEC00F076
:101E7200020E0301256F010E266F5B0E276F020E05
:081E8200286F9DEC05F0120031
:101E8A000101C351000A1DE181BA0CD0C22B800E98
:101E9A00010A006E800EC219005CD8A0C26B81BA1A
:101EAA0001D0FDD781B80DD0C207800EC219006ECD
:101EBA00800E000A005C02E2010EC26F81B801D0F6
:101ECA00FDD7C351010A26E181BA11D0C22B800E77
:101EDA00030A006E800EC219005CD8A0C26BC25100
:101EEA00010A02E1020EC26F81BA01D0FDD781B8A0
:101EFA0011D0C207800EC219006E800E000A005C63
:101F0A0002E2030EC26FC251010AD8B4C26B81B891
:061F1A0001D0FDD712000A
:101F20000301176B186B11C319F312C31AF3800E58
:101F30001219006E800E005C02E1000E115D0BE2D2
:101F4000010E176F000E186F11510008196F12C3A0
:101F50001AF3000E1A5719C31BF31AC31CF313C349
:101F60001DF314C31EF3DBDC060E156F000E166F97
:101F7000000E006E1651005C02E11551000819E2D6
:101F800015511325E16E16511421E26E010E155DF7
:101F9000006E000E1659016E00501325E96E0150B7
:101FA0001421EA6EEECFE6FF010E155F000E165B00
:101FB000DFD713C3E1FF14C3E2FF200EE66E175113
:101FC00018111AE0156B166B15511325E96E165191
:101FD0001421EA6EEE50200A03E1154B162BF4D7BC
:101FE000010E155F000E165B15511325E16E16519B
:0A1FF0001421E26E2D0EE66E1200C1
:101FFA0081BE5CD081BE01D0FDD71DDCEDEC0AF0BC
:10200A0049C200F04AC201F04BC202F04CC203F0CE
:10201A00000E046E000E056E580E066E830E076ED5
:10202A00BBEC01F000C025F301C026F302C027F380
:10203A0003C028F3CD0E0301296F020E2A6F030E87
:10204A002B6FD7EC07F052C200F053C201F0FAEC42
:10205A0006F000C057F201C058F202C059F203C09C
:10206A005AF200C025F301C026F302C027F303C0C9
:10207A0028F3B90E296F020E2A6F030E2B6FD7ECC5
:10208A0007F0540E256F020E266F19EC06F0070EA4
:10209A000B6E170E0C6E6A0E0D6E0D2EFED70C2EE1
:0E20AA00FCD70B2EFAD700009EDD0DDD1200D4
:1020B800959695949598959A959C959E83968394D4
:1020C800839E839C839A83982CEC00F02CEC00F080
:1020D8002CEC00F0838A8388838625EC00F08396B5
:1020E8002CEC00F0838625EC00F083962CEC00F0B5
:1020F800838625EC00F083962CEC00F08398838689
:1021080025EC00F083962CEC00F0838625EC00F09B
:102118008396839A838E838625EC00F083962CEC35
:1021280000F0839E8388838625EC00F0839683984D
:10213800838625EC00F083962CEC00F0838625EC52
:1021480000F083968388838625EC00F083962CEC38
:1021580000F08398838625EC00F08396838E838C29
:10216800838A8388838625EC00F083962CEC00F024
:0621780002018C8112003F
:10217E00F00E02018D6F0A0E8E6F370E8F6F030EEB
:10218E00906FC20E886F0B0E896F000E8A6F000E55
:10219E008B6F660E7E6F0C0E7F6F000E806F000EC3
:1021AE00816FFF0E826FFF0E836F000E846F000E25
:1021BE00856FAC8A900EAB6E948E949C9EAA03D0C3
:0821CE00AECF00F0FBD71200B8
:1021D6000900F5CFE6FF0006FBE10106F9E1120072
:1021E600010E0301256F010E266F1E0E276F020ECC
:1021F600286F9DEC05F046DE81BC0DD00201332B25
:10220600800E010A006E800E3319005CD8A0336B75
:1022160081BC01D0FDD702013351000A23E101013F
:10222600C36B020E0301256F010E266F340E276F56
:10223600020E286F9DEC05F0030E0301256F010EBB
:10224600266F090E276F020E286F9DEC05F0040E0F
:102256000301256F010E266FDE0E276F010E286F14
:102266009DEC05F03351010A65E10101F36B396B11
:10227600010EC36F52C211F353C212F3B90E03011A
:10228600136F020E146F49DE7AC211F37BC212F38A
:10229600CD0E136F020E146F40DE020E256F010E77
:1022A600266FF40E276F010E286F9DEC05F0030EC6
:1022B6000301256F010E266FAA0E276F010E286FE8
:1022C6009DEC05F0030E0301256F080E266FB90E6F
:1022D600276F020E286F9DEC05F0030E0301256F94
:1022E600120E266F8B0E276F010E286F9DEC05F0E0
:1022F600040E0301256F010E266F8E0E276F010E49
:10230600286F9DEC05F0040E0301256F080E266F5D
:10231600CD0E276F020E286F9DEC05F0040E03010B
:10232600256F120E266FA30E276F010E286F9DECE8
:0623360005F060DE12005C
:10233C00010E0301256F010E266F520E276F010E41
:10234C00286F9DEC05F09BDD81BC0CD0672B800EBB
:10235C00010A006E800E6719005CD8A0676B81BC07
:10236C0001D0FDD76751000A21E1020E0301256F50
:10237C00010E266F3A0E276F010E286F9DEC05F0AB
:10238C00030E0301256F010E266F0F0E276F010E32
:10239C00286F9DEC05F0040E0301256F010E266FCE
:1023AC00240E276F010E286F9DEC05F0010167517B
:1023BC00010A4DE1010E396F020E0301256F010E6A
:1023CC00266FCC0E276F000E286F9DEC05F0030EC8
:1023DC000301256F010E266F450E276F000E286F27
:1023EC009DEC05F0040E0301256F010E266F5A0EAD
:1023FC00276F000E286F9DEC05F081BC0ED00101FB
:10240C00672B800E010A006E800E6719005CD8A045
:10241C00676B81BC01D0FDD71AD033EC06F00050AD
:10242C00010A14E181BC0ED00101672B800E010A58
:10243C00006E800E6719005CD8A0676B81BC01D060
:10244C00FDD705D080DC68EC0DF001D0D6D712009A
:10245C0016DDCDDD020E0301256F010E266F840EF5
:10246C00276F000E286F9DEC05F0030E0301256FFE
:10247C00010E266F990E276F000E286F9DEC05F04C
:10248C00030E0301256F080E266FB90E276F020E7F
:10249C00286F9DEC05F0030E0301256F120E266FBD
:1024AC00AE0E276F000E286F9DEC05F0040E030195
:1024BC00256F010E266F680E276F010E286F9DEC9D
:1024CC0005F0040E0301256F080E266FCD0E276F45
:1024DC00020E286F9DEC05F0040E0301256F120E01
:1024EC00266FCE0E276F010E286F9DEC05F081BC78
:1024FC00A4D0040E0301256F010E266FD10E276F99
:10250C00010E286F9DEC05F0040E0301256F080EDB
:10251C00266F7AC227F37BC228F39DEC05F0040EDC
:10252C000301256F120E266FDB0E276F010E286F2D
:10253C009DEC05F081BC01D0FDD781B826D00A0EE8
:10254C007A25016E000E7B21026E01C07AF202C068
:10255C007BF2800E010A006E800E0218005C02E114
:10256C000150F40804E25A0E7A6F000E7B6F0D0EC8
:10257C000B6E2D0E0C6ED70E0D6E0D2EFED70C2E77
:10258C00FCD70B2EFAD70000000081BA25D00A0E1A
:10259C007A5D016E000E7B59026E01C07AF202C0A8
:1025AC007BF2800E0218006E800E005C02E15A0E67
:1025BC00015C04E2F40E7A6F010E7B6F0D0E0B6E54
:1025CC002D0E0C6ED70E0D6E0D2EFED70C2EFCD7CD
:1025DC000B2EFAD70000000081BC04D081BC01D0C6
:1025EC00FDD72BD07AC211F37BC212F3CD0E0301AF
:1025FC00136F020E146F8EDC040E256F010E266F06
:10260C00C40E276F010E286F9DEC05F0040E03011C
:10261C00256F080E266FCD0E276F020E286F9DECCE
:10262C0005F0040E0301256F120E266FBF0E276FE7
:0C263C00010E286F9DEC05F080D7120005
:1026480020DCD7DC020E0301256F010E266F6F0E0A
:10265800276F000E286F9DEC05F0030E0301256F10
:10266800010E266F300E276F000E286F9DEC05F0C7
:10267800030E0301256F080E266FB90E276F020E91
:10268800286F9DEC05F0030E0301256F120E266FCF
:10269800150E276F000E286F9DEC05F0040E030140
:1026A800256F010E266F180E276F000E286F9DEC00
:1026B80005F0040E0301256F080E266FCD0E276F57
:1026C800020E286F9DEC05F0040E0301256F120E13
:1026D800266F2D0E276F000E286F9DEC05F081BC2C
:1026E800A4D0030E0301256F010E266FB40E276FC9
:1026F800000E286F9DEC05F0030E0301256F080EF0
:10270800266FB90E276F020E286F9DEC05F0030E99
:102718000301256F120E266FBF0E276F000E286F5C
:102728009DEC05F081BC01D0FDD781B825D00A0EFB
:102738005225016E000E5321026E01C052F202C0F2
:1027480053F2800E006E800E0218005C02E1015008
:10275800FA0804E2140E526F000E536F0D0E0B6E42
:102768002D0E0C6ED70E0D6E0D2EFED70C2EFCD72F
:102778000B2EFAD70000000081BA25D00A0E525D50
:10278800016E000E5359026E01C052F202C053F29C
:10279800800E0218006E800E005C02E1140E015CCF
:1027A80004E2FA0E526F000E536F0D0E0B6E2D0ED3
:1027B8000C6ED70E0D6E0D2EFED70C2EFCD70B2EE1
:1027C800FAD70000000081BC04D081BC01D0FDD73D
:1027D8002CD052C211F353C212F3B90E0301136F76
:1027E800020E146F90EC0FF0030E256F010E266F8A
:1027F800C20E276F000E286F9DEC05F0030E030133
:10280800256F080E266FB90E276F020E286F9DECF4
:1028180005F0030E0301256F120E266FB10E276F08
:0C282800000E286F9DEC05F080D7120018
:10283400AEEC15F00D0E0B6E2D0E0C6ED70E0D6E4C
:102844000D2EFED70C2EFCD70B2EFAD7000000005D
:10285400070EB46EC26A0F0EC16EE00EB56E956AB5
:10286400F00E936E816AB886040EB06EE10EAF6E00
:10287400AC8483DC070E0B6E170E0C6E6A0E0D6EA5
:102884000D2EFED70C2EFCD70B2EFAD7000012DC2F
:10289400010E03013B6F4BEC00F00C0E03013B6F88
:1028A4004BEC00F0070E0B6E170E0C6E6A0E0D6EDD
:1028B4000D2EFED70C2EFCD70B2EFAD7000008D015
:1028C40090DC13D039DD11D0BDDE0FD0C5DD0DD0C5
:1028D4000101C251000AF4E0C251010AF3E0C251FD
:0E28E400020AF2E0C251030AF1E0E9D7FFD781
:102B5C0010EE15F0690E006E030E016EF20EF66E9D
:0E2B6C00280EF76E000EF86EEBEC10F0120063
:0328F200487A0021
:1028F5002050756C736F3A20202020202020202046
:0529050020202020004D
:03290A00757300E2
:10290D003E46726571753A2020202020202020201F
:05291D00202020200035
:102922003E426C7565746F6F74683A4C6967616496
:052932006F20202000D1
:1029370020416775617264616E646F204461646FE2
:05294700732E2E2E008E
:10294C0020426F746F65733A2020204C6967616474
:05295C006F20202000A7
:1029610020426F746F65733A2020204C696761645F
:052971006F2020200092
:102976002046726571753A202020202020202020D4
:052986002020202000CC
:03298B00487A0087
:03298E00487A0084
:0B299100204672657175653A203E001B
:03299C00487A0076
:0A299F002046726571753A203E0073
:1029A90020426F746F65733A2020204465736C6907
:0529B9006761646F007E
:0A29BE00506572696F646F3A2000E3
:0329C8006D73002C
:0629CB006F66663A200071
:0329D1007573001B
:0D29D4004672657175656E6369613A200099
:0329E100487A0031
:0829E40050756C736F3A20007E
:1029EC003E426C7565746F6F74683A4465736C69BC
:0529FC006761646F003B
:102A010020202020202020202020202020202020C5
:052A1100202020200040
:012A160000BF
:102A170020426F746F65733A2020204465736C6998
:052A27006761646F000F
:032A2C006D7300C7
:102A2F00202053454C4543494F4E45204F204D4F95
:052A3F00444F202000BF
:012A44000091
:102A45003E50756C736F3A202020202020202020D6
:052A55002020202000FC
:042A5A006F6666003D
:042A5E004E614E0077
:022A6200300042
:042A64006F66660033
:032A6800487A00A9
:102A6B002050756C736F3A202020202020202020CE
:052A7B002020202000D6
:032A80007573006B
:042A8300494E460072
:102A87002046726571753A202020202020202020C2
:052A97002020202000BA
:032A9C007573004F
:012A9F000036
:012AA0000035
:0A2AA1002050756C736F3A203E0060
:032AAB0075730040
:0A2AAE002050756C736F3A203E0053
:032AB80075730033
:102ABB00202020202020202020202020202020200B
:052ACB00202020200086
:012AD0000005
:102AD1003E426F746F65733A2020204C69676164D0
:052AE1006F2020200021
:102AE60020426C7565746F6F74683A4465736C69DF
:052AF6006761646F0040
:102AFB00202053454C4543494F4E45204F204D4FC9
:052B0B00444F202000F2
:012B100000C4
:102B11003E426F746F65733A2020204465736C697F
:052B21006761646F0014
:042B260000007B86AA
:022B2A00210088
:032B2C006F6E00C9
:022B2F0078002C
:032B31006F6E00C4
:042B340000007285A6
:102B38002020205445524150494120454E4345529A
:072B4800524144412020002E
:042B4F006F66660047
:022B53003B0045
:022B55003B0043
:022B5700FA0082
:022B59003B003F
:020000040030CA
:0E000000210E3F1EFF8301FF0FC00FE00F40D7
:00000001FF
